{
  "address": "0x0D36C9141D5FBfd53C15ec657110A0df99e91C69",
  "abi": [
    {
      "inputs": [],
      "stateMutability": "nonpayable",
      "type": "constructor"
    },
    {
      "anonymous": false,
      "inputs": [
        {
          "indexed": false,
          "internalType": "uint8",
          "name": "version",
          "type": "uint8"
        }
      ],
      "name": "Initialized",
      "type": "event"
    },
    {
      "anonymous": false,
      "inputs": [
        {
          "indexed": true,
          "internalType": "address",
          "name": "previousOwner",
          "type": "address"
        },
        {
          "indexed": true,
          "internalType": "address",
          "name": "newOwner",
          "type": "address"
        }
      ],
      "name": "OwnershipTransferred",
      "type": "event"
    },
    {
      "inputs": [],
      "name": "LINK",
      "outputs": [
        {
          "internalType": "contract LinkTokenInterface",
          "name": "",
          "type": "address"
        }
      ],
      "stateMutability": "view",
      "type": "function"
    },
    {
      "inputs": [],
      "name": "VRF_V2_WRAPPER",
      "outputs": [
        {
          "internalType": "contract VRFV2WrapperInterface",
          "name": "",
          "type": "address"
        }
      ],
      "stateMutability": "view",
      "type": "function"
    },
    {
      "inputs": [
        {
          "internalType": "uint256",
          "name": "tokenId_",
          "type": "uint256"
        }
      ],
      "name": "getTraits",
      "outputs": [
        {
          "internalType": "bool",
          "name": "available",
          "type": "bool"
        },
        {
          "components": [
            {
              "internalType": "enum DormintPillowsTraits.PillowMouth",
              "name": "mouth",
              "type": "uint8"
            },
            {
              "internalType": "enum DormintPillowsTraits.PillowEyes",
              "name": "eyes",
              "type": "uint8"
            },
            {
              "internalType": "enum DormintPillowsTraits.PillowPattern",
              "name": "pattern",
              "type": "uint8"
            },
            {
              "internalType": "enum DormintPillowsTraits.PillowRarity",
              "name": "rarity",
              "type": "uint8"
            },
            {
              "internalType": "enum DormintPillowsTraits.PillowShape",
              "name": "shape",
              "type": "uint8"
            },
            {
              "internalType": "enum DormintPillowsTraits.PillowPompom",
              "name": "pompom",
              "type": "uint8"
            },
            {
              "internalType": "enum DormintPillowsTraits.PillowAnimal",
              "name": "animal",
              "type": "uint8"
            }
          ],
          "internalType": "struct DormintPillowsTraits.PillowTraits",
          "name": "traits",
          "type": "tuple"
        }
      ],
      "stateMutability": "view",
      "type": "function"
    },
    {
      "inputs": [
        {
          "internalType": "address",
          "name": "link_",
          "type": "address"
        },
        {
          "internalType": "address",
          "name": "vrfV2Wrapper_",
          "type": "address"
        }
      ],
      "name": "initialize",
      "outputs": [],
      "stateMutability": "nonpayable",
      "type": "function"
    },
    {
      "inputs": [],
      "name": "owner",
      "outputs": [
        {
          "internalType": "address",
          "name": "",
          "type": "address"
        }
      ],
      "stateMutability": "view",
      "type": "function"
    },
    {
      "inputs": [],
      "name": "randomWord",
      "outputs": [
        {
          "internalType": "uint256",
          "name": "",
          "type": "uint256"
        }
      ],
      "stateMutability": "view",
      "type": "function"
    },
    {
      "inputs": [],
      "name": "randomnessRequestId",
      "outputs": [
        {
          "internalType": "uint256",
          "name": "",
          "type": "uint256"
        }
      ],
      "stateMutability": "view",
      "type": "function"
    },
    {
      "inputs": [
        {
          "internalType": "uint256",
          "name": "requestId_",
          "type": "uint256"
        },
        {
          "internalType": "uint256[]",
          "name": "randomWords_",
          "type": "uint256[]"
        }
      ],
      "name": "rawFulfillRandomWords",
      "outputs": [],
      "stateMutability": "nonpayable",
      "type": "function"
    },
    {
      "inputs": [],
      "name": "renounceOwnership",
      "outputs": [],
      "stateMutability": "nonpayable",
      "type": "function"
    },
    {
      "inputs": [],
      "name": "requestRandomness",
      "outputs": [],
      "stateMutability": "nonpayable",
      "type": "function"
    },
    {
      "inputs": [
        {
          "internalType": "address",
          "name": "token_",
          "type": "address"
        }
      ],
      "name": "rescueFunds",
      "outputs": [],
      "stateMutability": "nonpayable",
      "type": "function"
    },
    {
      "inputs": [
        {
          "internalType": "address",
          "name": "newOwner",
          "type": "address"
        }
      ],
      "name": "transferOwnership",
      "outputs": [],
      "stateMutability": "nonpayable",
      "type": "function"
    },
    {
      "inputs": [],
      "name": "withdraw",
      "outputs": [],
      "stateMutability": "nonpayable",
      "type": "function"
    }
  ],
  "transactionHash": "0x69d9fc56964fcb139379616edc8b51d506006fafb6b1550b64586c24d0b4948e",
  "args": [],
  "numDeployments": 2,
  "solcInputHash": "5c16f334d65c8fa6352346d26a90f98f",
  "bytecode": "0x608060405234801561001057600080fd5b5061001961001e565b6100de565b600054610100900460ff161561008a5760405162461bcd60e51b815260206004820152602760248201527f496e697469616c697a61626c653a20636f6e747261637420697320696e697469604482015266616c697a696e6760c81b606482015260840160405180910390fd5b60005460ff90811610156100dc576000805460ff191660ff9081179091556040519081527f7f26b83ff96e1f2b6a682f133852f6798a09c465da95921460cefb38474024989060200160405180910390a15b565b6111db806100ed6000396000f3fe608060405234801561001057600080fd5b50600436106100cf5760003560e01c80638da5cb5b1161008c578063e53b201711610066578063e53b201714610198578063f2fde38b146101ab578063f5684183146101be578063f8413b07146101c757600080fd5b80638da5cb5b14610153578063d929c97f14610164578063e1dc07611461017757600080fd5b80631b6b6d23146100d45780631fe543e314610104578063286a70aa146101195780633ccfd60b14610130578063485cc95514610138578063715018a61461014b575b600080fd5b6065546100e7906001600160a01b031681565b6040516001600160a01b0390911681526020015b60405180910390f35b610117610112366004610da8565b6101cf565b005b61012260675481565b6040519081526020016100fb565b61011761029f565b610117610146366004610e8e565b6102da565b61011761041d565b6033546001600160a01b03166100e7565b6066546100e7906001600160a01b031681565b61018a610185366004610ec1565b610431565b6040516100fb929190610f24565b6101176101a6366004610fd0565b61091b565b6101176101b9366004610fd0565b610a19565b61012260685481565b610117610a92565b6066546001600160a01b0316336001600160a01b0316146102375760405162461bcd60e51b815260206004820152601f60248201527f4f6e6c792056524620563220777261707065722063616e2066756c66696c6c0060448201526064015b60405180910390fd5b606754821461027a5760405162461bcd60e51b815260206004820152600f60248201526e15dc9bdb99c81c995c5d595cdd1259608a1b604482015260640161022e565b8060008151811061028d5761028d610ff2565b60200260200101516068819055505050565b6102a7610c87565b6040514790339082156108fc029083906000818181858888f193505050501580156102d6573d6000803e3d6000fd5b5050565b600054610100900460ff16158080156102fa5750600054600160ff909116105b806103145750303b158015610314575060005460ff166001145b6103775760405162461bcd60e51b815260206004820152602e60248201527f496e697469616c697a61626c653a20636f6e747261637420697320616c72656160448201526d191e481a5b9a5d1a585b1a5e995960921b606482015260840161022e565b6000805460ff19166001179055801561039a576000805461ff0019166101001790555b6103a2610ce1565b606580546001600160a01b038086166001600160a01b03199283161790925560668054928516929091169190911790558015610418576000805461ff0019169055604051600181527f7f26b83ff96e1f2b6a682f133852f6798a09c465da95921460cefb38474024989060200160405180910390a15b505050565b610425610c87565b61042f6000610d10565b565b60006104736040805160e08101909152806000815260200160008152602001600081526020016000815260200160008152602001600081526020016000905290565b6040805160e0810190915280600081526020016000815260200160008152602001600081526020016000815260200160008152602001600081525090506068546000036104c35760009150915091565b6040805160a0810182526000808252603c602080840191909152605083850152605a60608085019190915260616080850152606854855192830152938101879052600195506064930160408051601f19818403018152919052805160209091012090506000610532848361101e565b9050600460005b61054560016005611048565b8110156105b6578285826005811061055f5761055f610ff2565b602002015160ff161115801561059757508461057c826001611061565b6005811061058c5761058c610ff2565b602002015160ff1683105b156105a4578091506105b6565b806105ae81611074565b915050610539565b508060048111156105c9576105c9610eda565b866060019060048111156105df576105df610eda565b908160048111156105f2576105f2610eda565b9052506106019050848361108d565b915061060f600760016110a1565b60ff1693506000610620858461101e565b905080600781111561063457610634610eda565b8690600781111561064757610647610eda565b9081600781111561065a5761065a610eda565b9052506106699050848361108d565b9150610677600760016110a1565b60ff1693506000610688858461101e565b905080600781111561069c5761069c610eda565b866020019060078111156106b2576106b2610eda565b908160078111156106c5576106c5610eda565b9052506106d49050848361108d565b91506106e2600760016110a1565b60ff16935060006106f3858461101e565b905080600781111561070757610707610eda565b8660400190600781111561071d5761071d610eda565b9081600781111561073057610730610eda565b90525061073f9050848361108d565b915061074d600260016110a1565b60ff169350600061075e858461101e565b905080600281111561077257610772610eda565b8660800190600281111561078857610788610eda565b9081600281111561079b5761079b610eda565b9052506107aa9050848361108d565b9150600360ff1693506002856060015160048111156107cb576107cb610eda565b14806107ec57506003856060015160048111156107ea576107ea610eda565b145b8061080c575060048560600151600481111561080a5761080a610eda565b145b1561086957600061081d858461101e565b905061082a816001611061565b600381111561083b5761083b610eda565b8660a00190600381111561085157610851610eda565b9081600381111561086457610864610eda565b905250505b610873848361108d565b9150600560ff16935060038560600151600481111561089457610894610eda565b14806108b557506004856060015160048111156108b3576108b3610eda565b145b156109125760006108c6858461101e565b90506108d3816001611061565b60058111156108e4576108e4610eda565b8660c0019060058111156108fa576108fa610eda565b9081600581111561090d5761090d610eda565b905250505b50505050915091565b610923610c87565b6040516370a0823160e01b815230600482015281906000906001600160a01b038316906370a0823190602401602060405180830381865afa15801561096c573d6000803e3d6000fd5b505050506040513d601f19601f8201168201806040525081019061099091906110ba565b90506001600160a01b03821663a9059cbb336040516001600160e01b031960e084901b1681526001600160a01b039091166004820152602481018490526044016020604051808303816000875af11580156109ef573d6000803e3d6000fd5b505050506040513d601f19601f82011682018060405250810190610a1391906110d3565b50505050565b610a21610c87565b6001600160a01b038116610a865760405162461bcd60e51b815260206004820152602660248201527f4f776e61626c653a206e6577206f776e657220697320746865207a65726f206160448201526564647265737360d01b606482015260840161022e565b610a8f81610d10565b50565b610a9a610c87565b60685415610aea5760405162461bcd60e51b815260206004820181905260248201527f52616e646f6d6e6573732077617320616c726561647920706572736973746564604482015260640161022e565b6065546066546040516310c1b4d560e21b8152620493e060048201819052926005926001926001600160a01b0392831692634000aea09216908190634306d35490602401602060405180830381865afa158015610b4b573d6000803e3d6000fd5b505050506040513d601f19601f82011682018060405250810190610b6f91906110ba565b6040805163ffffffff808a16602083015261ffff89169282019290925290861660608201526080016040516020818303038152906040526040518463ffffffff1660e01b8152600401610bc4939291906110f5565b6020604051808303816000875af1158015610be3573d6000803e3d6000fd5b505050506040513d601f19601f82011682018060405250810190610c0791906110d3565b50606660009054906101000a90046001600160a01b03166001600160a01b031663fc2a88c36040518163ffffffff1660e01b8152600401602060405180830381865afa158015610c5b573d6000803e3d6000fd5b505050506040513d601f19601f82011682018060405250810190610c7f91906110ba565b606755505050565b6033546001600160a01b0316331461042f5760405162461bcd60e51b815260206004820181905260248201527f4f776e61626c653a2063616c6c6572206973206e6f7420746865206f776e6572604482015260640161022e565b600054610100900460ff16610d085760405162461bcd60e51b815260040161022e9061115a565b61042f610d62565b603380546001600160a01b038381166001600160a01b0319831681179093556040519116919082907f8be0079c531659141344cd1fd0a4f28419497f9722a3daafe3b4186f6b6457e090600090a35050565b600054610100900460ff16610d895760405162461bcd60e51b815260040161022e9061115a565b61042f33610d10565b634e487b7160e01b600052604160045260246000fd5b60008060408385031215610dbb57600080fd5b8235915060208084013567ffffffffffffffff80821115610ddb57600080fd5b818601915086601f830112610def57600080fd5b813581811115610e0157610e01610d92565b8060051b604051601f19603f83011681018181108582111715610e2657610e26610d92565b604052918252848201925083810185019189831115610e4457600080fd5b938501935b82851015610e6257843584529385019392850192610e49565b8096505050505050509250929050565b80356001600160a01b0381168114610e8957600080fd5b919050565b60008060408385031215610ea157600080fd5b610eaa83610e72565b9150610eb860208401610e72565b90509250929050565b600060208284031215610ed357600080fd5b5035919050565b634e487b7160e01b600052602160045260246000fd5b60088110610a8f57610a8f610eda565b60048110610f1057610f10610eda565b9052565b60068110610f1057610f10610eda565b82151581528151610100820190610f3a81610ef0565b806020840152506020830151610f4f81610ef0565b806040840152506040830151610f6481610ef0565b80606084015250606083015160058110610f8057610f80610eda565b80608084015250608083015160038110610f9c57610f9c610eda565b8060a08401525060a0830151610fb560c0840182610f00565b5060c0830151610fc860e0840182610f14565b509392505050565b600060208284031215610fe257600080fd5b610feb82610e72565b9392505050565b634e487b7160e01b600052603260045260246000fd5b634e487b7160e01b600052601260045260246000fd5b60008261102d5761102d611008565b500690565b634e487b7160e01b600052601160045260246000fd5b8181038181111561105b5761105b611032565b92915050565b8082018082111561105b5761105b611032565b60006001820161108657611086611032565b5060010190565b60008261109c5761109c611008565b500490565b60ff818116838216019081111561105b5761105b611032565b6000602082840312156110cc57600080fd5b5051919050565b6000602082840312156110e557600080fd5b81518015158114610feb57600080fd5b60018060a01b038416815260006020848184015260606040840152835180606085015260005b818110156111375785810183015185820160800152820161111b565b506000608082860101526080601f19601f83011685010192505050949350505050565b6020808252602b908201527f496e697469616c697a61626c653a20636f6e7472616374206973206e6f74206960408201526a6e697469616c697a696e6760a81b60608201526080019056fea2646970667358221220670a72bee5377b1dadc4f0ce1b9fc90f9713c57bacfa48e514c44c6d5893039764736f6c63430008110033",
  "devdoc": {
    "kind": "dev",
    "methods": {
      "constructor": {
        "custom:oz-upgrades-unsafe-allow": "constructor"
      },
      "owner()": {
        "details": "Returns the address of the current owner."
      },
      "renounceOwnership()": {
        "details": "Leaves the contract without owner. It will not be possible to call `onlyOwner` functions anymore. Can only be called by the current owner. NOTE: Renouncing ownership will leave the contract without an owner, thereby removing any functionality that is only available to the owner."
      },
      "transferOwnership(address)": {
        "details": "Transfers ownership of the contract to a new account (`newOwner`). Can only be called by the current owner."
      }
    },
    "version": 1
  },
  "userdoc": {
    "kind": "user",
    "methods": {
      "LINK()": {
        "notice": "--- BEGIN: V1 Storage Layout --- "
      },
      "getTraits(uint256)": {
        "notice": "PUBLIC GETTERS "
      },
      "requestRandomness()": {
        "notice": "PUBLIC SETTERS "
      }
    },
    "version": 1
  },
  "storageLayout": {
    "storage": [
      {
        "astId": 260,
        "contract": "contracts/DormintPillowsTraits.sol:DormintPillowsTraits",
        "label": "_initialized",
        "offset": 0,
        "slot": "0",
        "type": "t_uint8"
      },
      {
        "astId": 263,
        "contract": "contracts/DormintPillowsTraits.sol:DormintPillowsTraits",
        "label": "_initializing",
        "offset": 1,
        "slot": "0",
        "type": "t_bool"
      },
      {
        "astId": 825,
        "contract": "contracts/DormintPillowsTraits.sol:DormintPillowsTraits",
        "label": "__gap",
        "offset": 0,
        "slot": "1",
        "type": "t_array(t_uint256)50_storage"
      },
      {
        "astId": 132,
        "contract": "contracts/DormintPillowsTraits.sol:DormintPillowsTraits",
        "label": "_owner",
        "offset": 0,
        "slot": "51",
        "type": "t_address"
      },
      {
        "astId": 252,
        "contract": "contracts/DormintPillowsTraits.sol:DormintPillowsTraits",
        "label": "__gap",
        "offset": 0,
        "slot": "52",
        "type": "t_array(t_uint256)49_storage"
      },
      {
        "astId": 912,
        "contract": "contracts/DormintPillowsTraits.sol:DormintPillowsTraits",
        "label": "LINK",
        "offset": 0,
        "slot": "101",
        "type": "t_contract(LinkTokenInterface)94"
      },
      {
        "astId": 915,
        "contract": "contracts/DormintPillowsTraits.sol:DormintPillowsTraits",
        "label": "VRF_V2_WRAPPER",
        "offset": 0,
        "slot": "102",
        "type": "t_contract(VRFV2WrapperInterface)121"
      },
      {
        "astId": 917,
        "contract": "contracts/DormintPillowsTraits.sol:DormintPillowsTraits",
        "label": "randomnessRequestId",
        "offset": 0,
        "slot": "103",
        "type": "t_uint256"
      },
      {
        "astId": 919,
        "contract": "contracts/DormintPillowsTraits.sol:DormintPillowsTraits",
        "label": "randomWord",
        "offset": 0,
        "slot": "104",
        "type": "t_uint256"
      }
    ],
    "types": {
      "t_address": {
        "encoding": "inplace",
        "label": "address",
        "numberOfBytes": "20"
      },
      "t_array(t_uint256)49_storage": {
        "base": "t_uint256",
        "encoding": "inplace",
        "label": "uint256[49]",
        "numberOfBytes": "1568"
      },
      "t_array(t_uint256)50_storage": {
        "base": "t_uint256",
        "encoding": "inplace",
        "label": "uint256[50]",
        "numberOfBytes": "1600"
      },
      "t_bool": {
        "encoding": "inplace",
        "label": "bool",
        "numberOfBytes": "1"
      },
      "t_contract(LinkTokenInterface)94": {
        "encoding": "inplace",
        "label": "contract LinkTokenInterface",
        "numberOfBytes": "20"
      },
      "t_contract(VRFV2WrapperInterface)121": {
        "encoding": "inplace",
        "label": "contract VRFV2WrapperInterface",
        "numberOfBytes": "20"
      },
      "t_uint256": {
        "encoding": "inplace",
        "label": "uint256",
        "numberOfBytes": "32"
      },
      "t_uint8": {
        "encoding": "inplace",
        "label": "uint8",
        "numberOfBytes": "1"
      }
    }
  }
}